S018000041546D65676131365F4D5055363035302E737265635A
S11300000C9448000C9465000C9465000C946500F5
S11300100C9465000C9465000C9465000C946500C8
S11300200C9465000C9465000C9465000C946500B8
S11300300C9465000C9465000C9465000C946500A8
S11300400C9465000C9465000C9465000C94650098
S11300500C946500036EDB363D9A9999993DABAAE1
S1130060AA2A3E000000803F072C7AA5BA6CC590EE
S1130070DA3B9365FC8BBC53F810FD3C5692834DE0
S1130080BD879D3AB63DCBC9BF5BBE73DA0FC93F8E
S113009011241FBECFE5D4E0DEBFCDBF10E0A0E643
S11300A0B0E0E4E1FBE102C005900D92A03CB10791
S11300B0D9F721E0A0ECB0E001C01D92A636B2074A
S11300C0E1F70E9492070C94880D0C94000011B87B
S11300D080E280B9089594EA96BF06B607FEFDCF84
S11300E091B1987F903171F483B984E886BF06B6E4
S11300F007FEFDCF81B1887F803431F0803231F04A
S113010083E0089580E0089581E0089582E00895F1
S113011084E986BF06B604FCFDCF08951F93CF93F0
S1130120DF93182FC4EAD4E8C6BF06B607FEFDCF96
S113013091B1987F9830C1F713B9D6BF06B607FEC0
S1130140FDCF91B1987F983119F00E948800ECCFCF
S1130150DF91CF911F91089583B984E886BF06B6D5
S113016007FEFDCF81B1887F883221F0803321F0F2
S113017082E0089580E0089581E0089584EC86BFCC
S113018006B607FEFDCF83B1089584E886BF06B6A0
S113019007FEFDCF83B10895C29A82E08A95F1F7F4
S11301A000C0C29885E88A95F1F700000895CF93BE
S11301B0C82F882314F4C09A01C0C098C6FF02C097
S11301C0969A01C09698C5FF02C0C49A01C0C4980B
S11301D0C4FF02C0C39A01C0C398C19A0E94CC0054
S11301E0C3FF02C0C09A01C0C098C2FF02C0969A61
S11301F001C09698C1FF02C0C49A01C0C498C0FF50
S113020002C0C39A01C0C398C19A0E94CC00CF9186
S11302100895CF93C82F882314F4C09A01C0C098BE
S1130220C6FF02C0969A01C09698C5FF02C0C49A40
S113023001C0C498C4FF02C0C39A01C0C398C19846
S11302400E94CC00C3FF02C0C09A01C0C098C2FF84
S113025002C0969A01C09698C1FF02C0C49A01C018
S1130260C498C0FF02C0C39A01C0C398C1980E9439
S1130270CC00CF91089580E80E9409018FE697E1B0
S11302800197F1F700C000000895823071F018F46E
S1130290813031F019C0833069F0843081F014C0AA
S11302A08FE7860F0E94090108958FEB860F0E9445
S11302B0090108958FE8860F0E94090108958FECC3
S11302C0860F0E94090108950E943B010895CF936F
S11302D0DF93EC018881882331F021960E94D700B6
S11302E089918111FBCFDF91CF9108958F929F92D5
S11302F0AF92BF92EF92FF920F931F93CF93DF932E
S1130300CDB7DEB728970FB6F894DEBF0FBECDBFCA
S11303104B015C010E94A008162F072FF82EE92E2E
S11303200E94D8089B01AC01C501B4010E94A10739
S113033020E030E048EC52E40E94E8090E94A00862
S11303404B015C0199233CF4882499245401861AB6
S1130350970AA80AB90ABF92AF929F928F92EF921E
S1130360FF920F931F938DE690E09F938F938E01DE
S11303700F5F1F4F1F930F930E94B00AC8010E9482
S113038067010FB6F894DEBF0FBECDBF28960FB637
S1130390F894DEBF0FBECDBFDF91CF911F910F91B7
S11303A0FF90EF90BF90AF909F908F9008952FE7AC
S11303B088E391E0215080409040E1F700C00000C4
S11303C0C198C0989698C49AC39AC29A22E02A9572
S11303D0F1F700C0C2988FE097E20197F1F700C0EF
S11303E00000C198C0989698C49AC39AC29A92E0A1
S11303F09A95F1F700C0C2988FE097E20197F1F760
S113040000C00000C198C0989698C49AC39AC29A32
S113041092E09A95F1F700C0C2988FE097E20197B5
S1130420F1F700C00000C198C0989698C49AC39888
S1130430C29A92E09A95F1F700C0C2988FE097E2D1
S11304400197F1F700C000000895B99ABA9ABB9ACF
S1130450BC9A8E9AB89A0E94D70188E20E94090138
S11304608FE097E20197F1F700C000008EE00E9450
S113047009018FE097E20197F1F700C0000081E0E5
S11304800E9409018FE097E20197F1F700C0000094
S113049086E00E9409018FE097E20197F1F700C01E
S11304A0000080E80E9409018FE097E20197F1F7CC
S11304B000C000000895909A9198D89AD99890E035
S11304C09BBD8ABD70E079BD68BD0895919A9098EE
S11304D0D99AD898AF9890E09BBD8ABD70E079BD59
S11304E068BD08951BBA8FEF8ABB18BA87BB15BACB
S11304F084BB80E882BB9FE791BB13BE12BE1CBEC7
S113050091EA9FBD9AE09EBD1DBC1CBC17BC16BCE5
S11305101BBC1ABC19BC18BC12BC15BC14BC13BC43
S113052015BE14BE19BE1AB888B910BE16B81DB8C7
S113053016BE08952FE789EA93E021508040904049
S1130540E1F700C0000080ED0E948E0089E10E9466
S1130550AC0087E00E94AC000E94880080ED0E94FD
S11305608E008BE60E94AC0081E00E94AC000E94E9
S1130570880080ED0E948E008AE10E94AC0080E039
S11305800E94AC000E94880080ED0E948E008BE1E6
S11305900E94AC0080E00E94AC000E94880080EDC4
S11305A00E948E0088E30E94AC0081E00E94AC00AF
S11305B00E948800089580ED0E948E008BE30E94C3
S11305C0AC0081ED0E946B000895CF930E94DB0282
S11305D00E94BE00C82F0E94BE006C2F70E0762FD0
S11305E06627682B072E000C880B990B0E94D808ED
S11305F06093220170932301809324019093250139
S11306000E94BE00C82F0E94BE006C2F70E0762F9F
S11306106627682B072E000C880B990B0E94D808BC
S113062060930A0170930B0180930C0190930D0168
S11306300E94BE00C82F0E94BE006C2F70E0762F6F
S11306406627682B072E000C880B990B0E94D8088C
S11306506093E0007093E1008093E2009093E300E4
S11306600E94BE00C82F0E94BE006C2F70E0762F3F
S11306706627682B072E000C880B990B0E94D8085C
S11306806093FE007093FF0080930001909301013A
S11306900E94BE00C82F0E94BE006C2F70E0762F0F
S11306A06627682B072E000C880B990B0E94D8082C
S11306B06093FA007093FB008093FC009093FD001C
S11306C00E94BE00C82F0E94BE006C2F70E0762FDF
S11306D06627682B072E000C880B990B0E94D808FC
S11306E060935E0170935F01809360019093610158
S11306F00E94BE00C82F0E94C5006C2F70E0762FA8
S11307006627682B072E000C880B990B0E94D808CB
S11307106093160170931701809318019093190147
S11307200E948800CF9108954F925F926F927F92BA
S11307308F929F92AF92BF92CF92DF92EF92FF92ED
S1130740C0901E01D0901F01E0902001F090210183
S1130750C092C800D092C900E092CA00F092CB00C7
S11307602AE939E949E95EEBC701B6010E94E309C8
S11307708823B4F02AE939E949E95EE3C701B601FF
S11307800E942908181664F01092C8001092C9003B
S11307901092CA001092CB0060E080E00E945B02DD
S11307A061E081E00E94450184EB90E00E946701D2
S11307B06091C8007091C9008091CA009091CB00EB
S11307C00E9476012091C8003091C9004091CA006E
S11307D05091CB006091C0007091C1008091C20023
S11307E09091C3000E94A1076B017C0160930201F8
S11307F07093030180930401909305019058209114
S113080064003091650040916600509167000E9439
S1130810E8094B015C0160935A0170935B0180937A
S11308205C0190935D0120913E0130913F01409124
S1130830400150914101C701B6010E94A1072B015B
S11308403C016091680070916900072E000C880BD0
S1130850990B0E94D8089B01AC01C301B2010E940C
S11308602E08209160003091610040916200509107
S113087063000E94E8092B013C01609346017093D8
S11308804701809348019093490120E030E040E81B
S11308905FEBC701B6010E94E30918165CF520E07E
S11308A030E040E85FE3C701B6010E9429088823CD
S11308B00CF52091C4003091C5004091C6005091C0
S11308C0C700C701B6010E94E8099B01AC01609111
S11308D052017091530180915401909155010E94ED
S11308E0A207609352017093530180935401909333
S11308F0550108C0109252011092530110925401F4
S113090010925501209152013091530140915401AC
S113091050915501C501B4010E94A2079B01AC018D
S1130920C301B2010E94A20720E030E44CE156E486
S11309300E94A20720E030E04FEF53E40E94E80950
S113094020E030E44CE956E40E942E0820E030E038
S11309504FE753E40E94A1076B017C0120E030E0E3
S1130960A9010E94E30918164CF0C0921201D0921A
S11309701301E0921401F09215019CC020E030E0D4
S113098041E653E4C701B6010E94E80920E030E0E3
S11309904FE753E40E942E0820E030E040EF51E49A
S11309A00E94A2076B017C0120E030E048EC52E495
S11309B00E94E30918164CF0C0921201D092130160
S11309C0E0921401F092150127C020E030E04CE8D9
S11309D052E4C701B6010E94A2076093120170930A
S11309E0130180931401909315010E94A708862F88
S11309F00E945B0261E082E00E9445018AEB90E084
S1130A000E94670160911201709113018091140199
S1130A10909115010E947601C0901201D0901301AB
S1130A20E0901401F090150120E030E04FE753E42A
S1130A30C701B6010E94E30918161CF580E090E096
S1130A40AFE7B3E48093120190931301A0931401D0
S1130A50B09315016FEF8FEF0E945B0261E082E0BB
S1130A600E9445018AEB90E00E94670160911201A7
S1130A707091130180911401909115010E947601E7
S1130A8019C0C701B6010E94A708862F0E945B0205
S1130A9061E082E00E9445018AEB90E00E946701D8
S1130AA060911201709113018091140190911501CC
S1130AB00E947601C0901201D0901301E0901401BD
S1130AC0F090150120E030E0A901C701B6010E94B1
S1130AD0290888230CF09DC0C701B601905820E076
S1130AE030E041E653E40E94E80920E030E04FE7BB
S1130AF053E40E942E0820E030E040EF51E40E94CD
S1130B00A2076B017C0120E030E048EC52E40E9433
S1130B10E30918164CF0C0921201D0921301E0922E
S1130B201401F092150127C020E030E04CE852E4B3
S1130B30C701B6010E94A2076093120170931301CA
S1130B4080931401909315010E94A708862F0E9498
S1130B50660261E082E00E9445018DEB90E00E9414
S1130B6067016091120170911301809114019091B9
S1130B7015010E947601C0901201D0901301E090FB
S1130B801401F090150120E030E04FE753E4C70171
S1130B90B6010E94E30918161CF580E090E0AFE767
S1130BA0B3E48093120190931301A0931401B093C2
S1130BB015016FEF8FEF0E94660261E082E00E94F0
S1130BC045018AEB90E00E946701609112017091E7
S1130BD0130180911401909115010E94760119C0AE
S1130BE0C701B6010E94A708862F0E94660261E031
S1130BF082E00E9445018DEB90E00E9467016091C4
S1130C0012017091130180911401909115010E94B9
S1130C1076018091020190910301A0910401B091A9
S1130C20050180933E0190933F01A0934001B0934E
S1130C304101FF90EF90DF90CF90BF90AF909F90D5
S1130C408F907F906F905F904F9008954F925F9236
S1130C506F927F928F929F92AF92BF92CF92DF92C8
S1130C60EF92FF92CF93DF93CDB7DEB72C970FB6F9
S1130C70F894DEBF0FBECDBF12BE0E94E50220E095
S1130C8030E040E858E360912201709123018091A3
S1130C902401909125010E94E8094B015C016093B5
S1130CA03A0170933B0180933C0190933D0120E015
S1130CB030E040E858E360910A0170910B018091A3
S1130CC00C0190910D010E94E8096B017C01609375
S1130CD0420170934301809344019093450120E0C5
S1130CE030E040E858E36091E0007091E1008091C9
S1130CF0E2009091E3000E94E8092B013C0160931B
S1130D004E0170934F01809350019093510120E064
S1130D1030E043E053E46091FA007091FB0080916D
S1130D20FC009091FD000E942E0820EB33E04FEE72
S1130D305FE30E94A20720914A0130914B01409148
S1130D404C0150914D010E94E8096D837E838F838D
S1130D5098876093D8007093D9008093DA009093B9
S1130D60DB0020E030E043E053E460915E017091E9
S1130D705F0180916001909161010E942E0860934F
S1130D80D4007093D5008093D6009093D70020E0D0
S1130D9030E043E053E460911601709117018091B3
S1130DA01801909119010E942E086093D00070934D
S1130DB0D1008093D2009093D300A5019401C50182
S1130DC0B4010E94E80969837A838B839C83A70119
S1130DD09601C701B6010E94E80969877A878B8763
S1130DE09C879B01AC0169817A818B819C810E94E3
S1130DF0A20769837A838B839C83A5019401C5012F
S1130E00B4010E94E8094B015C0129853A854B85B0
S1130E105C85C501B4010E94A2074B015C01A301DA
S1130E209201C301B2010E94E8099B01AC01C50112
S1130E30B4010E94A2070E945B0A9B01AC01C70196
S1130E40B6010E942E080E940E0826EF38E245E6FD
S1130E5052E40E94E8096B017C016093DC0070930A
S1130E60DD008093DE009093DF002091CC00309170
S1130E70CD004091CE005091CF006D817E818F8155
S1130E8098850E94A2076093CC007093CD00809354
S1130E90CE009093CF0021E93DEE4CE75FE30E9442
S1130EA0E8094B015C0126EA3BE944E45CE3C70141
S1130EB0B6010E94E8099B01AC01C501B4010E947E
S1130EC0A20760931E0170931F01809320019093E9
S1130ED0210162B770E080E090E00E94D6082FE71D
S1130EE037E842E259E30E94E80960934A017093AB
S1130EF04B0180934C0190934D012C960FB6F894BE
S1130F00DEBF0FBECDBFDF91CF91FF90EF90DF909A
S1130F10CF90BF90AF909F908F907F906F905F9095
S1130F204F9008950E9472020E9467000E949A02E4
S1130F300E94250285E083BF0E9426060E94940336
S1130F40FBCF5058BB27AA270E94B9070C94A909C4
S1130F500E949B0938F00E94A20920F039F49F3FB7
S1130F6019F426F40C945D090EF4E095E7FB0C9457
S1130F705709E92F0E94BA0958F3BA176207730791
S1130F808407950720F079F4A6F50C94DC090EF497
S1130F90E0950B2EBA2FA02D0B01B90190010C0185
S1130FA0CA01A0011124FF27591B99F0593F50F49D
S1130FB0503E68F11A16F040A22F232F342F4427F5
S1130FC0585FF3CF469537952795A795F0405395ED
S1130FD0C9F77EF41F16BA0B620B730B840BBAF0BD
S1130FE09150A1F0FF0FBB1F661F771F881FC2F728
S1130FF00EC0BA0F621F731F841F48F4879577953C
S11310006795B795F7959E3F08F0B0CF9395880FF5
S113101008F09927EE0F9795879508959F939F77EA
S1131020EEE389379E0728F4E4E5F0E00E9487099F
S11310300CC00E9413099058A2EA2AED3FE049EC43
S11310405FE30E94B9070E94A9090F9007FC90581A
S113105008950E94330908F481E008950E9442082B
S11310600C94A9090E94A20958F00E949B0940F01F
S113107029F45F3F29F00C94570951110C94DD09B0
S11310800C945D090E94BA0968F39923B1F35523BE
S113109091F3951B550BBB27AA2762177307840787
S11310A038F09F5F5F4F220F331F441FAA1FA9F31D
S11310B035D00E2E3AF0E0E832D091505040E6950B
S11310C0001CCAF72BD0FE2F29D0660F771F881F6C
S11310D0BB1F261737074807AB07B0E809F0BB0B5F
S11310E0802DBF01FF2793585F4F3AF09E3F510573
S11310F078F00C9457090C94DD095F3FE4F3983EB3
S1131100D4F3869577956795B795F7959F5FC9F75B
S1131110880F911D9695879597F90895E1E0660FDC
S1131120771F881FBB1F621773078407BA0720F055
S1131130621B730B840BBA0BEE1F88F7E0950895BE
S11311400E94A7086894B1110C94DD0908950E94C7
S1131150C20988F09F5798F0B92F9927B751B0F07A
S1131160E1F0660F771F881F991F1AF0BA95C9F727
S113117014C0B13091F00E94DC09B1E008950C94E0
S1131180DC09672F782F8827B85F39F0B93FCCF393
S1131190869577956795B395D9F73EF490958095A4
S11311A0709561957F4F8F4F9F4F0895E89409C0C4
S11311B097FB3EF490958095709561957F4F8F4F86
S11311C09F4F9923A9F0F92F96E9BB279395F6959C
S11311D0879577956795B795F111F8CFFAF4BB0F1A
S11311E011F460FF1BC06F5F7F4F8F4F9F4F16C07E
S11311F0882311F096E911C0772321F09EE8872F08
S1131200762F05C0662371F096E8862F70E060E0C3
S11312102AF09A95660F771F881FDAF7880F96953C
S1131220879597F90895DF93CF931F930F938B01BD
S1131230EC01E8E6F0E00E9460090E94A909980127
S1131240AE018B01EC0160E070E080E89FE30E9456
S1131250A1070E945B0A9801AE010F911F91CF91E3
S1131260DF910C94FB09990F0008550FAA0BE0E8D5
S1131270FEEF16161706E807F907C0F01216130654
S1131280E407F50798F0621B730B840B950B39F494
S11312900A2661F0232B242B252B21F408950A26FA
S11312A009F4A140A6958FEF811D811D089597F93A
S11312B09F6780E870E060E008959FEF80EC0895F8
S11312C0DF93CF931F930F93FF92EF92DF927B01F3
S11312D08C01689406C0DA2EEF010E94FB09FE011E
S11312E0E894A5912591359145915591A6F3EF0187
S11312F00E94B907FE019701A801DA9469F7DF900B
S1131300EF90FF900F911F91CF91DF9108959F93DC
S11313108F937F936F93FF93EF939B01AC010E9494
S1131320E809EF91FF910E9460092F913F914F913D
S11313305F910C94E80900240A94161617061806FF
S11313400906089500240A941216130614060506C5
S11313500895092E0394000C11F4882352F0BB0F56
S113136040F4BF2B11F460FF04C06F5F7F4F8F4FB9
S11313709F4F089557FD9058440F551F59F05F3FF4
S113138071F04795880F97FB991F61F09F3F79F0A3
S113139087950895121613061406551FF2CF469525
S11313A0F1DF08C0161617061806991FF1CF8695A7
S11313B07105610508940895E894BB27662777278B
S11313C0CB0197F908950E94330908F48FEF08952B
S11313D00E94FB090C94A9090E949B0938F00E9401
S11313E0A20920F0952311F00C9457090C945D097F
S11313F011240C94DD090E94BA0970F3959FC1F37E
S1131400950F50E0551F629FF001729FBB27F00DAE
S1131410B11D639FAA27F00DB11DAA1F649F662703
S1131420B00DA11D661F829F2227B00DA11D621F52
S1131430739FB00DA11D621F839FA00D611D221F0C
S1131440749F3327A00D611D231F849F600D211DF0
S1131450822F762F6A2F11249F5750409AF0F1F073
S113146088234AF0EE0FFF1FBB1F661F771F881FDC
S113147091505040A9F79E3F510580F00C945709B4
S11314800C94DD095F3FE4F3983ED4F38695779599
S11314906795B795F795E7959F5FC1F7FE2B880F82
S11314A0911D9695879597F9089519F416F40C945F
S11314B05D090C949B0A0E94C209B8F39923C9F3ED
S11314C0B6F39F57550B87FF0E94A90A0024A0E694
S11314D040EA900180585695979528F4805C660FF1
S11314E0771F881F20F026173707480730F4621B40
S11314F0730B840B202931294A2BA6951794079442
S1131500202531254A2758F7660F771F881F20F0BA
S113151026173707480730F4620B730B840B200D32
S1131520311D411DA09581F7B901842F9158880F71
S11315309695879508959F3F31F0915020F48795B3
S113154077956795B795880F911D9695879597F927
S1131550089591505040660F771F881FD2F7089561
S1131560AEE0B0E0E6EBFAE00C945F0D0D891E8965
S113157086E08C831A8309838FEF9FE79E838D8394
S1131580AE01475E5F4F6F89788DCE0101960E9450
S1131590D30A2F813885F801E20FF31F10822E96AB
S11315A0E4E00C947B0DACE0B0E0E9EDFAE00C94DF
S11315B0510D7C016B018A01FC0117821682838123
S11315C081FFBDC1CE0101964C01F7019381F60163
S11315D093FD859193FF81916F01882309F4ABC139
S11315E0853239F493FD859193FF81916F018532A2
S11315F029F4B70190E00E94BB0CE7CF512C312CA9
S113160020E02032A0F48B3269F030F4803259F0BB
S1131610833269F420612CC08D3239F0803339F47F
S1131620216026C02260246023C0286021C027FDD9
S113163027C030ED380F3A3078F426FF06C0FAE0C0
S11316405F9E300D1124532E13C08AE0389E300D56
S11316501124332E20620CC08E3221F426FD6BC17E
S1131660206406C08C3611F4206802C0883641F428
S1131670F60193FD859193FF81916F018111C1CF93
S1131680982F9F7D9554933028F40C5F1F4FFFE3F0
S1131690F9830DC0833631F0833771F0833509F057
S11316A05BC022C0F801808189830E5F1F4F4424F0
S11316B04394512C540115C03801F2E06F0E711C93
S11316C0F801A080B18026FF03C0652D70E002C040
S11316D06FEF7FEFC5012C870E94B00C2C018301B2
S11316E02C852F77222E17C03801F2E06F0E711C63
S11316F0F801A080B18026FF03C0652D70E002C010
S11317006FEF7FEFC5012C870E94A50C2C012C855F
S11317102068222E830123FC1BC0832D90E04816F1
S11317205906B0F4B70180E290E00E94BB0C3A94F1
S1131730F4CFF50127FC859127FE81915F01B70164
S113174090E00E94BB0C31103A94F1E04F1A51081A
S11317504114510471F7E5C0843611F0893639F526
S1131760F80127FF07C060817181828193810C5F3A
S11317701F4F08C060817181072E000C880B990BE4
S11317800E5F1F4F2F76722E97FF09C0909580959C
S1131790709561957F4F8F4F9F4F2068722E2AE07E
S11317A030E0A4010E94F30CA82EA81844C0853789
S11317B029F42F7EB22E2AE030E025C0F22FF97FE3
S11317C0BF2E8F36C1F018F4883579F0B4C0803755
S11317D019F0883721F0AFC02F2F2061B22EB4FE4C
S11317E00DC08B2D8460B82E09C024FF0AC09F2F22
S11317F09660B92E06C028E030E005C020E130E054
S113180002C020E132E0F801B7FE07C060817181B7
S1131810828193810C5F1F4F06C06081718180E0DB
S113182090E00E5F1F4FA4010E94F30CA82EA8188D
S1131830FB2DFF777F2E76FE0BC0372D3E7FA51440
S113184050F474FE0AC072FC08C0372D3E7E05C0F9
S1131850BA2C372D03C0BA2C01C0B52C34FF0DC0EF
S1131860FE01EA0DF11D8081803311F4397E09C037
S113187032FF06C0B394B39404C0832F867809F072
S1131880B39433FD13C030FF06C05A2CB31418F4BC
S1131890530C5B18B32CB31468F4B70180E290E0E6
S11318A03C870E94BB0CB3943C85F5CFB31410F471
S11318B03B1801C0312C34FF12C0B70180E390E023
S11318C03C870E94BB0C3C8532FF17C031FD03C02E
S11318D088E790E002C088E590E0B7010CC0832F50
S11318E0867859F031FF02C08BE201C080E237FDF7
S11318F08DE2B70190E00E94BB0CA51438F4B70147
S113190080E390E00E94BB0C5A94F7CFAA94F401B0
S1131910EA0DF11D8081B70190E00E94BB0CA1107B
S1131920F5CF332009F451CEB70180E290E00E9454
S1131930BB0C3A94F6CFF7018681978102C08FEFF2
S11319409FEF2C96E2E10C946D0DFC010590615023
S113195070400110D8F7809590958E0F9F1F0895C1
S1131960FC016150704001900110D8F7809590956A
S11319708E0F9F1F08950F931F93CF93DF93FB0147
S1131980238121FD03C08FEF9FEF28C022FF16C0E3
S113199046815781248135814217530744F4A0813D
S11319A0B1819D012F5F3F4F318320838C9326812A
S11319B037812F5F3F4F3783268310C0EB01092FF8
S11319C0182F0084F185E02D0995892BE1F68E818D
S11319D09F8101969F838E83812F902FDF91CF91DA
S11319E01F910F910895FA01AA27283051F120314F
S11319F081F1E8946F936E7F6E5F7F4F8F4F9F4F9F
S1131A00AF4FB1E03ED0B4E03CD0670F781F891FE0
S1131A109A1FA11D680F791F8A1F911DA11D6A0FAE
S1131A20711D811D911DA11D20D009F468943F9161
S1131A302AE0269F11243019305D3193DEF6CF0160
S1131A400895462F4770405D4193B3E00FD0C9F726
S1131A50F6CF462F4F70405D4A3318F0495D31FD93
S1131A604052419302D0A9F7EACFB4E0A6959795E6
S1131A70879577956795BA95C9F7009761057105BC
S1131A8008959B01AC010A2E069457954795379506
S1131A902795BA95C9F7620F731F841F951FA01D60
S1131AA008952F923F924F925F926F927F928F92FE
S1131AB09F92AF92BF92CF92DF92EF92FF920F93D9
S1131AC01F93CF93DF93CDB7DEB7CA1BDB0B0FB6E3
S1131AD0F894DEBF0FBECDBF09942A8839884888A0
S1131AE05F846E847D848C849B84AA84B984C88436
S1131AF0DF80EE80FD800C811B81AA81B981CE0F2D
S1131B00D11D0FB6F894DEBF0FBECDBFED01089511
S1071B10F894FFCF73
S1131B1400007A430000FF433200257500256C64FD
S1131B242E256C640025253025756C640025252537
S1131B34756C6400252530257564002564256425A9
S1131B4464256425642564256425640025252325EA
S1131B5430337578002525253033757500616E673B
S1131B6478673D00416E67583D00463A00423A00AA
S9030000FC
