S01400006D6164677769636B5F6D70752E7372656318
S11300000C946B000C9488000C9488000C94880069
S11300100C9488000C9488000C9488000C9488003C
S11300200C9488000C9488000C9488000C9488002C
S11300300C9488000C9488000C9488000C9488001C
S11300400C9488000C9488000C9488000C9488000C
S11300500C94880007634236B79BD8A71A396856B0
S113006018AEBAAB558C1D3CB7CC5763BD6DEDFDD6
S1130070753EF6177231BF000000803F0800000093
S1130080BE922449123EABAAAA2ABECDCCCC4C3E89
S113009000000080BEABAAAAAA3E00000000BF0078
S11300A00000803F0000000000084178D3BB438774
S11300B0D1133D190E3CC3BD4282AD2B3E68EC8288
S11300C076BED98FE1A93E4C80EFFFBE01C4FF7F0D
S11300D03F000000000011241FBECFE5D4E0DEBFC6
S11300E0CDBF10E0A0E6B0E0EEEEF6E102C0059070
S11300F00D92AA3AB107D9F721E0AAEAB0E001C00B
S11301001D92A030B207E1F70E94F3020C94750B24
S11301100C94000094EA96BF06B607FEFDCF91B199
S1130120987F903171F483B984E886BF06B607FEE0
S1130130FDCF81B1887F803431F0803231F083E0AB
S1130140089580E0089581E0089582E0089584E9A7
S113015086BF06B604FCFDCF08951F93CF93DF93AB
S1130160182FC4EAD4E8C6BF06B607FEFDCF91B186
S1130170987F9830C1F713B9D6BF06B607FEFDCFF6
S113018091B1987F983119F00E94A700ECCFDF91CC
S1130190CF911F91089583B984E886BF06B607FE00
S11301A0FDCF81B1887F883221F0803321F082E055
S11301B0089580E0089581E0089584EC86BF06B632
S11301C007FEFDCF83B1089584E886BF06B607FE17
S11301D0FDCF83B10895C29A82E08A95F1F700C0F9
S11301E0C29885E88A95F1F700000895CF93C82F47
S11301F0882314F4C09A01C0C098C6FF02C0969A1E
S113020001C09698C5FF02C0C49A01C0C498C4FF37
S113021002C0C39A01C0C398C19A0E94EB00C3FFF5
S113022002C0C09A01C0C098C2FF02C0969A01C021
S11302309698C1FF02C0C49A01C0C498C0FF02C00E
S1130240C39A01C0C398C19A0E94EB00CF9108954C
S1130250CF93C82F882314F4C09A01C0C098C6FF56
S113026002C0969A01C09698C5FF02C0C49A01C004
S1130270C498C4FF02C0C39A01C0C398C1980E9425
S1130280EB00C3FF02C0C09A01C0C098C2FF02C005
S1130290969A01C09698C1FF02C0C49A01C0C4983E
S11302A0C0FF02C0C39A01C0C398C1980E94EB006A
S11302B0CF91089580E80E9428018FE697E1019785
S11302C0F1F700C00000089581E00E9428018FE644
S11302D097E10197F1F700C000000895823071F0B2
S11302E018F4813031F019C0833069F0843081F022
S11302F014C08FE7860F0E94280108958FEB860FA4
S11303000E94280108958FE8860F0E94280108950D
S11303108FEC860F0E94280108950E945A010895C7
S1130320CF93DF93EC018881882331F021960E94DA
S1130330F60089918111FBCFDF91CF9108957F92CF
S11303408F929F92AF92BF92CF92DF92EF92FF92E1
S11303500F931F93CF93DF93CDB7DEB767970FB695
S1130360F894DEBF0FBECDBF4B015C01142FF22EFB
S11303700E94E705D62EC72EE82E792E6F2D70E049
S113038080E090E00E941D069B01AC0160E070E0FB
S113039080E291E40E9447076C8B7D8B8E8B9F8B50
S11303A06D2D7C2D8E2D972D0E941F069B01AC0177
S11303B0C501B4010E9408059B01AC016C897D89CB
S11303C08E899F890E94DA060E94E7054B015C0131
S11303D01F921F938BE690E09F938F938E01035F90
S11303E01F4F1F930F930E949D087F92EF92CF920D
S11303F0DF921F930F93CE0101966C019F938F930D
S11304000E949D08C6010E9490018EE20E94F6009F
S11304101F92FF9283E790E09F938F931F930F9314
S11304200E949D08D501C401BB203CF4882799276C
S1130430DC0188199909AA09BB09BF93AF939F935B
S11304408F93CE010D969F938F938E010F5F1F4F55
S11304501F930F930E949D08C8010E9490010FB63C
S1130460F894DEBF0FBECDBF67960FB6F894DEBF1B
S11304700FBECDBFDF91CF911F910F91FF90EF90F1
S1130480DF90CF90BF90AF909F908F907F90089512
S11304902FE788E391E0215080409040E1F700C0CD
S11304A00000C198C0989698C49AC39AC29A22E050
S11304B02A95F1F700C0C2988FE097E20197F1F70F
S11304C000C00000C198C0989698C49AC39AC29A72
S11304D092E09A95F1F700C0C2988FE097E20197F5
S11304E0F1F700C00000C198C0989698C49AC39AC6
S11304F0C29A92E09A95F1F700C0C2988FE097E211
S11305000197F1F700C00000C198C0989698C49A6A
S1130510C398C29A92E09A95F1F700C0C2988FE00E
S113052097E20197F1F700C000000895B99ABA9ACA
S1130530BB9ABC9A8E9AB89A0E94480288E20E949A
S113054028018FE097E20197F1F700C000008EE0E8
S11305500E9428018FE097E20197F1F700C00000A4
S113056081E00E9428018FE097E20197F1F700C033
S1130570000086E00E9428018FE097E20197F1F7DE
S113058000C0000080E80E9428018FE097E20197F4
S1130590F1F700C0000008951BBA8FEF8ABB18BAA8
S11305A087BB15BA84BB12BA81BB13BE12BE1CBE74
S11305B081EA8FBD8CE08EBD1DBC1CBC17BC16BC73
S11305C01BBC1ABC19BC18BC12BC15BC14BC13BC93
S11305D015BE14BE19BE1AB880E888B910BE16B884
S11305E01DB816BE08950E94CC020E9496020E9475
S11305F064010E94FE020E947E04FFCF2FE789EA75
S113060093E0215080409040E1F700C0000080ED6D
S11306100E94AD0089E10E94CB0087E00E94CB00DC
S11306200E94A70080ED0E94AD008BE60E94CB00E3
S113063081E00E94CB000E94A70080ED0E94AD00E3
S11306408AE10E94CB0080E00E94CB000E94A700B8
S113065080ED0E94AD008BE10E94CB0080E00E94FF
S1130660CB000E94A70080ED0E94AD0088E30E94A9
S1130670CB0081E00E94CB000E94A700089580ED8A
S11306800E94AD008BE30E94CB0081ED0E948A00A2
S113069008958F929F92AF92BF92CF92DF92EF9282
S11306A0FF92CF930E943F030E94DD00C82F0E9457
S11306B0DD002C2F30E0322F2227282B3093B70077
S11306C02093B6000E94DD00C82F0E94DD002C2F6D
S11306D030E0322F2227282B3093E3002093E200CE
S11306E00E94DD00C82F0E94DD002C2F30E0322F45
S11306F02227282B3093B1002093B0000E94DD0004
S1130700C82F0E94DD002C2F30E0322F2227282B07
S11307103093C1002093C0000E94DD00C82F0E94C6
S1130720DD002C2F30E0322F2227282B3093DD00E0
S11307302093DC000E94DD00C82F0E94DD002C2FD6
S113074030E0322F2227282B3093CF002093CE0085
S11307500E94DD00C82F0E94E4002C2F30E0322FCD
S11307602227282B3093AB002093AA000E94A700D5
S11307706091B6007091B700072E000C880B990B9E
S11307800E941F0620E030E040E858E30E94DA06A9
S11307906093EC007093ED008093EE009093EF0073
S11307A06091E2007091E300072E000C880B990B16
S11307B00E941F0620E030E040E858E30E94DA0679
S11307C06093B2007093B3008093B4009093B5002B
S11307D06091B0007091B100072E000C880B990B4A
S11307E00E941F0620E030E040E858E30E94DA0649
S11307F06093E4007093E5008093E6009093E70033
S11308006091CE007091CF00072E000C880B990BDD
S11308100E941F0626E83BEF4EE85CE30E94DA06DE
S113082020E030E043E053E40E9475056B017C0155
S11308308091AA009091AB00BC01990F880B990B91
S11308400E941F0626E83BEF4EE85CE30E94DA06AE
S113085020E030E043E053E40E9475054B015C0165
S11308608091DC009091DD00BC01990F880B990BFD
S11308700E941F0626E83BEF4EE85CE30E94DA067E
S113088020E030E043E053E40E9475052EE738E5AC
S11308904AE05DE30E9409056093C6007093C700B7
S11308A08093C8009093C9002DE23FED44EC5CE3D3
S11308B0C701B6010E9408056093C2007093C3008B
S11308C08093C4009093C5002EE539EB43E85CE3C4
S11308D0C501B4010E9408056093BC007093BD007B
S11308E08093BE009093BF00CF91FF90EF90DF9074
S11308F0CF90BF90AF909F908F900895CF93DF9348
S1130900C0E1D7E20E9449032091C6003091C7009C
S11309104091C8005091C9006091D8007091D900ED
S11309208091DA009091DB000E9409056093D80061
S11309307093D9008093DA009093DB002091C20079
S11309403091C3004091C4005091C5006091CA0029
S11309507091CB008091CC009091CD000E9409054C
S11309606093CA007093CB008093CC009093CD0029
S11309702091BC003091BD004091BE005091BF0059
S11309806091DE007091DF008091E0009091E100C1
S11309900E9409056093DE007093DF008093E000FD
S11309A09093E100219709F0ADCF61E070E082E01F
S11309B090E00E946E0183EA90E00E9490016091B1
S11309C0CA007091CB008091CC009091CD0024E0BE
S11309D030E044E050E00E949F0161E070E081E07B
S11309E090E00E946E0186EA90E00E94900160917E
S11309F0DE007091DF008091E0009091E10024E03E
S1130A0030E044E050E00E949F01DF91CF910895CF
S1130A105058BB27AA270E9420050C9498060E94D0
S1130A208A0638F00E94910620F039F49F3F19F4A9
S1130A3026F40C9460060EF4E095E7FB0C945A0639
S1130A40E92F0E94A90658F3BA17620773078407AF
S1130A50950720F079F4A6F50C94CB060EF4E095F6
S1130A600B2EBA2FA02D0B01B90190010C01CA0164
S1130A70A0011124FF27591B99F0593F50F4503E0F
S1130A8068F11A16F040A22F232F342F4427585F01
S1130A90F3CF469537952795A795F0405395C9F719
S1130AA07EF41F16BA0B620B730B840BBAF09150D1
S1130AB0A1F0FF0FBB1F661F771F881FC2F70EC070
S1130AC0BA0F621F731F841F48F487957795679543
S1130AD0B795F7959E3F08F0B0CF9395880F08F02F
S1130AE09927EE0F9795879508950E9489050C9490
S1130AF098060E94910658F00E948A0640F029F454
S1130B005F3F29F00C945A0651110C94CC060C94B6
S1130B1060060E94A90668F39923B1F3552391F363
S1130B20951B550BBB27AA2762177307840738F058
S1130B309F5F5F4F220F331F441FAA1FA9F335D0B5
S1130B400E2E3AF0E0E832D091505040E695001C69
S1130B50CAF72BD0FE2F29D0660F771F881FBB1F23
S1130B60261737074807AB07B0E809F0BB0B802D01
S1130B70BF01FF2793585F4F3AF09E3F510578F02D
S1130B800C945A060C94CC065F3FE4F3983ED4F3DD
S1130B90869577956795B795F7959F5FC9F7880F01
S1130BA0911D9695879597F90895E1E0660F771F53
S1130BB0881FBB1F621773078407BA0720F0621BE4
S1130BC0730B840BBA0BEE1F88F7E09508950E940F
S1130BD0EE056894B1110C94CC0608950E94B106F8
S1130BE088F09F5798F0B92F9927B751B0F0E1F0EA
S1130BF0660F771F881F991F1AF0BA95C9F714C09A
S1130C00B13091F00E94CB06B1E008950C94CB066C
S1130C10672F782F8827B85F39F0B93FCCF38695D2
S1130C2077956795B395D9F73EF49095809570952F
S1130C3061957F4F8F4F9F4F0895E89409C097FBAC
S1130C403EF490958095709561957F4F8F4F9F4F9F
S1130C509923A9F0F92F96E9BB279395F6958795E3
S1130C6077956795B795F111F8CFFAF4BB0F11F4A6
S1130C7060FF1BC06F5F7F4F8F4F9F4F16C088234D
S1130C8011F096E911C0772321F09EE8872F762F83
S1130C9005C0662371F096E8862F70E060E02AF0C4
S1130CA09A95660F771F881FDAF7880F96958795B0
S1130CB097F9089597F99F6780E870E060E00895D8
S1130CC09FEF80EC0895DF93CF931F930F93FF92D0
S1130CD0EF92DF927B018C01689406C0DA2EEF015B
S1130CE00E94ED06FE01E894A59125913591459168
S1130CF05591A6F3EF010E942005FE019701A8017A
S1130D00DA9469F7DF90EF90FF900F911F91CF91E4
S1130D10DF91089500240A9416161706180609068A
S1130D20089500240A94121613061406050608955D
S1130D30092E0394000C11F4882352F0BB0F40F4E5
S1130D40BF2B11F460FF04C06F5F7F4F8F4F9F4F25
S1130D50089557FD9058440F551F59F05F3F71F0A7
S1130D604795880F97FB991F61F09F3F79F087950E
S1130D700895121613061406551FF2CF4695F1DF97
S1130D8008C0161617061806991FF1CF8695710527
S1130D90610508940895E894BB2766277727CB015B
S1130DA097F908959B01AC0160E070E080E89FE34F
S1130DB00C9475050E94ED060C9498060E948A0610
S1130DC038F00E94910620F0952311F00C945A06F5
S1130DD00C94600611240C94CC060E94A90670F3AE
S1130DE0959FC1F3950F50E0551F629FF001729FCC
S1130DF0BB27F00DB11D639FAA27F00DB11DAA1FDB
S1130E00649F6627B00DA11D661F829F2227B00D27
S1130E10A11D621F739FB00DA11D621F839FA00DB2
S1130E20611D221F749F3327A00D611D231F849F02
S1130E30600D211D822F762F6A2F11249F57504059
S1130E409AF0F1F088234AF0EE0FFF1FBB1F661FD4
S1130E50771F881F91505040A9F79E3F510580F09D
S1130E600C945A060C94CC065F3FE4F3983ED4F3FA
S1130E70869577956795B795F795E7959F5FC1F741
S1130E80FE2B880F911D9695879597F90895FA0181
S1130E90EE0FFF1F309621053105A1F16115710593
S1130EA061F48038BFE39B0749F168949038810569
S1130EB061F08038BFEF9B0741F099234AF5FF3F6B
S1130EC0E1053105210519F1E8940894E795D90164
S1130ED0AA2329F4AB2FBE2FF85FD0F310C0FF5F15
S1130EE070F4A695E0F7F73950F019F0FF3A38F4AA
S1130EF09F779F930DD00F9007FC9058089546F06C
S1130F000C94600660E070E080E89FE308954FE78A
S1130F109F775F934F933F932F930E9421082F91C4
S1130F203F914F915F910E94DA060C949F0729F438
S1130F3016F00C945A060C94CB060C9460060E948E
S1130F40B106A8F39638A0F707F80F92E8942BE3BC
S1130F503AEA48EB5FE70E94F0060F920F920F9275
S1130F604DB75EB70F920E946908E4E5F0E00E9475
S1130F7063064F915F91EF91FF91E595EE1FFF1F7F
S1130F8049F0FE57E0684427EE0F441FFA95E1F755
S1130F904195550B0E94E3070F9007FE0C94D2066F
S1130FA008959F3F31F0915020F487957795679588
S1130FB0B795880F911D9695879597F908950C9488
S1130FC05A060C94D1070E94B106D8F39923C9F3A9
S1130FD0940F511DA3F39150504094F059F088237D
S1130FE032F0660F771F881F91505040C1F79E3F23
S1130FF051052CF7880F911D9695879597F90895BB
S11310005F3FACF0983E9CF0BB278695779567953B
S1131010B79508F4B1609395C1F7BB0F58F711F475
S113102060FFE8CF6F5F7F4F8F4F9F4FE3CF0C94EC
S1131030CC0616F00C94D1070C94600668940C94BA
S11310405A060E94B106A8F39923C1F3AEF3DF93C5
S1131050CF931F930F93FF92C92FDD2788232AF084
S11310602197660F771F881FDAF720E030E040E809
S11310705FEB9FE3883920F0803E38F021968F772C
S11310800E940905ECE7F0E004C00E940905E9EAC2
S1131090F0E00E9463068B01BE01EC01FB2E6F574A
S11310A071097595771F880B990B0E941F0628E11B
S11310B032E741E35FE30E94ED06AF2D9801AE01F4
S11310C0FF900F911F91CF91DF910E9420050C9406
S11310D09806FA01DC01AA0FBB1F9B01AC01BF57A4
S11310E028F4222733274427507820C0B75190F49E
S11310F0AB2F0024469537952795011CA395D2F371
S1131100002071F0220F331F441FB395DAF30ED081
S11311100C94080561307105A0E88A07B94630F4DB
S11311209B01AC016627772788279078309621F0B9
S113113020833183428353830895AEE0B0E0E3EA31
S1131140F8E00C944C0B0D891E8986E08C831A837D
S113115009838FEF9FE79E838D83AE01475E5F4FC8
S11311606F89788DCE0101960E94C0082F81388541
S1131170F801E20FF31F10822E96E4E00C94680B42
S1131180ACE0B0E0E6ECF8E00C943E0B7C016B01C3
S11311908A01FC0117821682838181FFBDC1CE01C1
S11311A001964C01F7019381F60193FD859193FF1C
S11311B081916F01882309F4ABC1853239F493FD21
S11311C0859193FF81916F01853229F4B70190E0F5
S11311D00E94A80AE7CF512C312C20E02032A0F441
S11311E08B3269F030F4803259F0833269F4206133
S11311F02CC08D3239F0803339F4216026C022604E
S1131200246023C0286021C027FD27C030ED380F9B
S11312103A3078F426FF06C0FAE05F9E300D1124C0
S1131220532E13C08AE0389E300D1124332E2062D1
S11312300CC08E3221F426FD6BC1206406C08C36AE
S113124011F4206802C0883641F4F60193FD8591BB
S113125093FF81916F018111C1CF982F9F7D955488
S1131260933028F40C5F1F4FFFE3F9830DC08336DE
S113127031F0833771F0833509F05BC022C0F80187
S1131280808189830E5F1F4F44244394512C540161
S113129015C03801F2E06F0E711CF801A080B18016
S11312A026FF03C0652D70E002C06FEF7FEFC5011C
S11312B02C870E949D0A2C0183012C852F77222ED6
S11312C017C03801F2E06F0E711CF801A080B180E4
S11312D026FF03C0652D70E002C06FEF7FEFC501EC
S11312E02C870E94920A2C012C852068222E8301CF
S11312F023FC1BC0832D90E048165906B0F4B701B7
S113130080E290E00E94A80A3A94F4CFF50127FC09
S1131310859127FE81915F01B70190E00E94A80AA0
S113132031103A94F1E04F1A51084114510471F705
S1131330E5C0843611F0893639F5F80127FF07C076
S113134060817181828193810C5F1F4F08C060812D
S11313507181072E000C880B990B0E5F1F4F2F769F
S1131360722E97FF09C090958095709561957F4F77
S11313708F4F9F4F2068722E2AE030E0A4010E9414
S1131380E00AA82EA81844C0853729F42F7EB22E6F
S11313902AE030E025C0F22FF97FBF2E8F36C1F04E
S11313A018F4883579F0B4C0803719F0883721F003
S11313B0AFC02F2F2061B22EB4FE0DC08B2D8460E0
S11313C0B82E09C024FF0AC09F2F9660B92E06C00C
S11313D028E030E005C020E130E002C020E132E046
S11313E0F801B7FE07C060817181828193810C5F2F
S11313F01F4F06C06081718180E090E00E5F1F4F37
S1131400A4010E94E00AA82EA818FB2DFF777F2EC6
S113141076FE0BC0372D3E7FA51450F474FE0AC02F
S113142072FC08C0372D3E7E05C0BA2C372D03C090
S1131430BA2C01C0B52C34FF0DC0FE01EA0DF11D1C
S11314408081803311F4397E09C032FF06C0B39421
S1131450B39404C0832F867809F0B39433FD13C08A
S113146030FF06C05A2CB31418F4530C5B18B32C79
S1131470B31468F4B70180E290E03C870E94A80AA4
S1131480B3943C85F5CFB31410F43B1801C0312C50
S113149034FF12C0B70180E390E03C870E94A80AA1
S11314A03C8532FF17C031FD03C088E790E002C0DD
S11314B088E590E0B7010CC0832F867859F031FF9E
S11314C002C08BE201C080E237FD8DE2B70190E0FB
S11314D00E94A80AA51438F4B70180E390E00E94A2
S11314E0A80A5A94F7CFAA94F401EA0DF11D808159
S11314F0B70190E00E94A80AA110F5CF332009F4A7
S113150051CEB70180E290E00E94A80A3A94F6CF47
S1131510F7018681978102C08FEF9FEF2C96E2E15D
S11315200C945A0BFC010590615070400110D8F7DF
S1131530809590958E0F9F1F0895FC016150704017
S113154001900110D8F7809590958E0F9F1F0895F4
S11315500F931F93CF93DF93FB01238121FD03C0DE
S11315608FEF9FEF28C022FF16C046815781248148
S113157035814217530744F4A081B1819D012F5F47
S11315803F4F318320838C93268137812F5F3F4FD8
S11315903783268310C0EB01092F182F0084F185AF
S11315A0E02D0995892BE1F68E819F8101969F8319
S11315B08E83812F902FDF91CF911F910F910895EA
S11315C0FA01AA27283051F1203181F1E8946F9370
S11315D06E7F6E5F7F4F8F4F9F4FAF4FB1E03ED016
S11315E0B4E03CD0670F781F891F9A1FA11D680FB4
S11315F0791F8A1F911DA11D6A0F711D811D911DE7
S1131600A11D20D009F468943F912AE0269F11245B
S11316103019305D3193DEF6CF010895462F4770BF
S1131620405D4193B3E00FD0C9F7F6CF462F4F701A
S1131630405D4A3318F0495D31FD4052419302D078
S1131640A9F7EACFB4E0A69597958795779567951E
S1131650BA95C9F700976105710508959B01AC011E
S11316600A2E06945795479537952795BA95C9F745
S1131670620F731F841F951FA01D08952F923F9220
S11316804F925F926F927F928F929F92AF92BF928E
S1131690CF92DF92EF92FF920F931F93CF93DF933A
S11316A0CDB7DEB7CA1BDB0B0FB6F894DEBF0FBE97
S11316B0CDBF09942A88398848885F846E847D84E4
S11316C08C849B84AA84B984C884DF80EE80FD80E6
S11316D00C811B81AA81B981CE0FD11D0FB6F8945C
S11116E0DEBF0FBECDBFED010895F894FFCF1D
S11316EE257500256C642E256C6400252530257522
S11316FE6C6400252525756C6400252530257564DC
S113170E00256425642564256425642564256425E3
S113171E640025252325303375780025252530339F
S10D172E757500593A005A3A00009C
S9030000FC
